:0300000002000EED
:0E000B00020060D2A6D2A7D2A1D2A290049584
:0F001900758160D2D4D2D379007850C2D4C2D3CB
:0E00280075A882758902758A06758C06D28CC1
:0F00360075420475430075446475560075576430
:0E00450075260675273F75283F3066FDC2669A
:0F00530012023B3067F5C26712052580EEF57883
:0E0062009258D542231204541202257542040E
:100070001204B51204A1E5446002800EE54360025B
:0F0080008008855643855744D266E578A25832EA
:10008F00D297C295C296C297D296D29500C29500CA
:10009F00D29500C295C296D29500C29500D2950016
:1000AF00C29500D29500C29500D29500C2957C05ED
:1000BF00740000D2A0D29500A2A033C29500DCF24A
:0F00CF00F5307C08740000D2A0D29500A2A033B7
:0F00DE00C29500DCF2F53175540CE530B408081A
:0F00ED00E531B400030201284003020128155435
:0F00FC007F11E53033B3F530E53133F531DFF304
:10010B00053140028006E5303400F530741025309F
:0F011B00F52FC27CC27DC27EC27F852F30155466
:10012A00754E08754F00E530254EF52FC27CC27D0D
:0F013A00C27EC27F852F307533037534E8E531FF
:0F0149008534F0A4F53285F035E5308534F0A427
:10015800F53685F037E5338531F0A4F53885F03983
:10016800E5338530F0A4F53AE5352536F536E5373B
:100178003539F539E5362538F531E539353AF5308B
:0F0188007A0AE53013F530E53113F531E532131E
:10019700F532C3DAEE784F75490ABA10031201D067
:1001A700C3B853030201FBC31201E5E549B5410298
:0F01B700800430D7E5C3E5419549F541BA1003FF
:1001C6001201DCD31201E5C380E208A641754100A5
:1001D6001201E57A002208A6417541007AFF220A3B
:0F01E600E53233F532E53133F531E54133F5419B
:0F01F500E54033F54022C3E55385535993F55345
:10020400E55285525A93F552E55185515B93F55168
:10021400E55085505C93F550E55493F55485545856
:1002240022C2A3C2A47E08D2A3D2A5A2A533D2A47B
:10023400C2A4DEF5F52D2285455E85465F306F1834
:0F024400306E1E306D54306C15306B0F306A0306
:0F0253000203441203FD02034402033902031D98
:0F0262000202DE120345C2A2C2A17400B52E0231
:0E027100800320D70C12008FE551D2E7F55123
:0F027F00020344755440755306755200755100C3
:10028E00755000C250A2A19249A2A2924802034404
:0F029E00120345C2A2D2A17400A2A192E0A2A2B3
:0F02AD0092E1B52E02800320D70C12008FE5538B
:1002BC00D2E7F5530203447554407553067552004A
:1002CC00755100755000C250A2A19249A2A2924849
:0F02DC008066120345D2A2C2A17400A2A192E0D3
:0F02EB00A2A292E1B52E02800320D70B12008F42
:0E02FA00E552D2E7F552804275544075530626
:0F030800755200755100755000C250A2A1924964
:10031700A2A292488027120345D2A2D2A112008F2F
:10032700E551D2E7F551C250A2A19249A2A2924843
:10033700800B120345A2A19249A2A2924822D25051
:10034700D267D2A1D2A212008FE553B43F02800B2D
:10035700E551D2E7F55180000203F4E552B43F02BC
:100367008023E552B4060FD2A2C2A112008FE55234
:0F037700D2E7F5528077D2A1D2A212008FE551C2
:0F038600D2E7F5518068E551B43F028023E5517D
:10039500B4060FC2A2D2A112008FE553D2E7F553DE
:0F03A500804DD2A2C2A112008FE552D2E7F552CD
:1003B400803EE550B43F02802AD2A2C2A112008F2F
:1003C400E551B4060FC2A2C2A112008FE551D2E7D3
:0F03D400F551801CC2A2D2A112008FE553D2E7CF
:0F03E300F553800DC2A2C2A112008FE551D2E7DF
:0E03F200F551A2A19270A2A2927122306AFD72
:0F04000075540075530085265285275185285065
:0F040F00785079FF306A1F30690530680B80F52F
:0F041E001204483069FD02041379FF08B8530235
:0E042D0078503068FD020413306AFD855028B7
:0E043B008551278552261204D212034522094C
:0F044900B90A027900E9F6E693F622D294D2932B
:0F045800D292D291D290D2D4D2D38680B900045E
:10046700C294801CB90104C2938015B90204C292D8
:10047700800EB90304C2918007B90404C2908000BA
:100487000809B8550478507900C2D4C2D4223F066F
:100497005B4F666D7D077F6F40001544E544600242
:1004A700800BE543600715437544FF80ED22054641
:0F04B700E546B4FF057546000545E545B4FF0B66
:1004C600E546B4FF06754600754500227400F547FB
:1004D60093B550028005E5470480F37400F5559303
:0F04E600B551028005E5550480F37400F5569377
:1004F500B552028005E5560480F3E55575F00AA46A
:0F050500F555E55675F064A485F0562555F55764
:10051400E5563400E5472557F557E5563400F556BA
:1005240022855E5D1205771205F6855F5D120577FB
:0F0534001205F6852A5D1205771205F685295DF9
:0F0543001205771205F6855C5D1205771205F635
:0F055200855B5D1205771205F6855A5D120577F8
:0F0561001205F685595D1205771205F685585D6E
:0E0570001205771205F622C2A71205C5C2A613
:0F057E001205C574A01205CA1205DF500280FED7
:0F058D001205C5E53E1205CA1205DF500280FEB9
:0F059C001205C5E53F1205CA1205DF500280FEA9
:0F05AB00E55D1205C51205CA1205DF500280FE7C
:1005BA00D2A61205C5D2A71205C5227804D8FE22F2
:0F05CA0079083392A71205C5D2A61205C5C2A69D
:1005D9001205C5D9EE22D2A71205C5D2A61205C5A4
:0F05E900A2A71205C5C2A61205C5C2A722053FCB
:0F05F800E53FB4FF10E53EB47F07053F753E00B9
:070607008004053E80002283
:00000001FF
